{
  "_format": "hh-sol-artifact-1",
  "contractName": "ConsentManager",
  "sourceName": "contracts/ConsentManager.sol",
  "abi": [
    {
      "anonymous": false,
      "inputs": [
        {
          "indexed": true,
          "internalType": "bytes32",
          "name": "consentId",
          "type": "bytes32"
        },
        {
          "indexed": true,
          "internalType": "address",
          "name": "patient",
          "type": "address"
        },
        {
          "indexed": true,
          "internalType": "address",
          "name": "grantee",
          "type": "address"
        },
        {
          "indexed": false,
          "internalType": "bytes32",
          "name": "recordId",
          "type": "bytes32"
        },
        {
          "indexed": false,
          "internalType": "uint256",
          "name": "validUntil",
          "type": "uint256"
        }
      ],
      "name": "ConsentGranted",
      "type": "event"
    },
    {
      "anonymous": false,
      "inputs": [
        {
          "indexed": true,
          "internalType": "bytes32",
          "name": "consentId",
          "type": "bytes32"
        }
      ],
      "name": "ConsentRevoked",
      "type": "event"
    },
    {
      "anonymous": false,
      "inputs": [
        {
          "indexed": true,
          "internalType": "bytes32",
          "name": "recordId",
          "type": "bytes32"
        },
        {
          "indexed": true,
          "internalType": "address",
          "name": "owner",
          "type": "address"
        },
        {
          "indexed": false,
          "internalType": "string",
          "name": "cid",
          "type": "string"
        },
        {
          "indexed": false,
          "internalType": "bytes32",
          "name": "fileHash",
          "type": "bytes32"
        }
      ],
      "name": "RecordAdded",
      "type": "event"
    },
    {
      "inputs": [
        {
          "internalType": "bytes32",
          "name": "recordId",
          "type": "bytes32"
        },
        {
          "internalType": "address",
          "name": "owner",
          "type": "address"
        },
        {
          "internalType": "string",
          "name": "cid",
          "type": "string"
        },
        {
          "internalType": "bytes32",
          "name": "fileHash",
          "type": "bytes32"
        }
      ],
      "name": "addRecord",
      "outputs": [],
      "stateMutability": "nonpayable",
      "type": "function"
    },
    {
      "inputs": [
        {
          "internalType": "bytes32",
          "name": "",
          "type": "bytes32"
        }
      ],
      "name": "consents",
      "outputs": [
        {
          "internalType": "address",
          "name": "patient",
          "type": "address"
        },
        {
          "internalType": "address",
          "name": "grantee",
          "type": "address"
        },
        {
          "internalType": "bytes32",
          "name": "recordId",
          "type": "bytes32"
        },
        {
          "internalType": "uint256",
          "name": "validFrom",
          "type": "uint256"
        },
        {
          "internalType": "uint256",
          "name": "validUntil",
          "type": "uint256"
        },
        {
          "internalType": "bool",
          "name": "active",
          "type": "bool"
        }
      ],
      "stateMutability": "view",
      "type": "function"
    },
    {
      "inputs": [
        {
          "internalType": "bytes32",
          "name": "consentId",
          "type": "bytes32"
        }
      ],
      "name": "getConsent",
      "outputs": [
        {
          "internalType": "address",
          "name": "patient",
          "type": "address"
        },
        {
          "internalType": "address",
          "name": "grantee",
          "type": "address"
        },
        {
          "internalType": "bytes32",
          "name": "recordId",
          "type": "bytes32"
        },
        {
          "internalType": "uint256",
          "name": "validFrom",
          "type": "uint256"
        },
        {
          "internalType": "uint256",
          "name": "validUntil",
          "type": "uint256"
        },
        {
          "internalType": "bool",
          "name": "active",
          "type": "bool"
        }
      ],
      "stateMutability": "view",
      "type": "function"
    },
    {
      "inputs": [
        {
          "internalType": "bytes32",
          "name": "recordId",
          "type": "bytes32"
        }
      ],
      "name": "getRecord",
      "outputs": [
        {
          "internalType": "address",
          "name": "owner",
          "type": "address"
        },
        {
          "internalType": "string",
          "name": "cid",
          "type": "string"
        },
        {
          "internalType": "bytes32",
          "name": "fileHash",
          "type": "bytes32"
        },
        {
          "internalType": "uint256",
          "name": "createdAt",
          "type": "uint256"
        }
      ],
      "stateMutability": "view",
      "type": "function"
    },
    {
      "inputs": [
        {
          "internalType": "bytes32",
          "name": "consentId",
          "type": "bytes32"
        },
        {
          "internalType": "address",
          "name": "grantee",
          "type": "address"
        },
        {
          "internalType": "bytes32",
          "name": "recordId",
          "type": "bytes32"
        },
        {
          "internalType": "uint256",
          "name": "validUntil",
          "type": "uint256"
        }
      ],
      "name": "grantConsent",
      "outputs": [],
      "stateMutability": "nonpayable",
      "type": "function"
    },
    {
      "inputs": [
        {
          "internalType": "address",
          "name": "requester",
          "type": "address"
        },
        {
          "internalType": "bytes32",
          "name": "recordId",
          "type": "bytes32"
        }
      ],
      "name": "isAccessAllowed",
      "outputs": [
        {
          "internalType": "bool",
          "name": "",
          "type": "bool"
        }
      ],
      "stateMutability": "view",
      "type": "function"
    },
    {
      "inputs": [
        {
          "internalType": "bytes32",
          "name": "",
          "type": "bytes32"
        }
      ],
      "name": "records",
      "outputs": [
        {
          "internalType": "address",
          "name": "owner",
          "type": "address"
        },
        {
          "internalType": "bytes32",
          "name": "recordId",
          "type": "bytes32"
        },
        {
          "internalType": "string",
          "name": "cid",
          "type": "string"
        },
        {
          "internalType": "bytes32",
          "name": "fileHash",
          "type": "bytes32"
        },
        {
          "internalType": "uint256",
          "name": "createdAt",
          "type": "uint256"
        }
      ],
      "stateMutability": "view",
      "type": "function"
    },
    {
      "inputs": [
        {
          "internalType": "bytes32",
          "name": "consentId",
          "type": "bytes32"
        }
      ],
      "name": "revokeConsent",
      "outputs": [],
      "stateMutability": "nonpayable",
      "type": "function"
    }
  ],
  "bytecode": "0x608060405234801561001057600080fd5b50611591806100206000396000f3fe608060405234801561001057600080fd5b50600436106100885760003560e01c80634712eaae1161005b5780634712eaae1461012c5780637715ae34146101485780638ee9bc941461017d578063b3d8ccbd146101ad57610088565b806301e647251461008d57806307a0315d146100c1578063213681cd146100dd57806327df362314610110575b600080fd5b6100a760048036038101906100a29190610b4c565b6101e2565b6040516100b8959493929190610c72565b60405180910390f35b6100db60048036038101906100d69190610b4c565b6102c0565b005b6100f760048036038101906100f29190610b4c565b610408565b6040516101079493929190610ccc565b60405180910390f35b61012a60048036038101906101259190610da9565b6104f4565b005b61014660048036038101906101419190610e5d565b6106b7565b005b610162600480360381019061015d9190610b4c565b61095e565b60405161017496959493929190610edf565b60405180910390f35b61019760048036038101906101929190610f40565b6109ff565b6040516101a49190610f80565b60405180910390f35b6101c760048036038101906101c29190610b4c565b610a83565b6040516101d996959493929190610edf565b60405180910390f35b60006020528060005260406000206000915090508060000160009054906101000a900473ffffffffffffffffffffffffffffffffffffffff169080600101549080600201805461023190610fca565b80601f016020809104026020016040519081016040528092919081815260200182805461025d90610fca565b80156102aa5780601f1061027f576101008083540402835291602001916102aa565b820191906000526020600020905b81548152906001019060200180831161028d57829003601f168201915b5050505050908060030154908060040154905085565b60006001600083815260200190815260200160002090503373ffffffffffffffffffffffffffffffffffffffff168160000160009054906101000a900473ffffffffffffffffffffffffffffffffffffffff1673ffffffffffffffffffffffffffffffffffffffff1614610369576040517f08c379a000000000000000000000000000000000000000000000000000000000815260040161036090611047565b60405180910390fd5b8060050160009054906101000a900460ff166103ba576040517f08c379a00000000000000000000000000000000000000000000000000000000081526004016103b1906110b3565b60405180910390fd5b60008160050160006101000a81548160ff021916908315150217905550817f1ea893b704d41fc8ac0534da58fcbe5ecb13345d1de49869de886dc273aadd4860405160405180910390a25050565b60006060600080600080600087815260200190815260200160002090508060000160009054906101000a900473ffffffffffffffffffffffffffffffffffffffff16816002018260030154836004015482805461046490610fca565b80601f016020809104026020016040519081016040528092919081815260200182805461049090610fca565b80156104dd5780601f106104b2576101008083540402835291602001916104dd565b820191906000526020600020905b8154815290600101906020018083116104c057829003601f168201915b505050505092509450945094509450509193509193565b6000806000878152602001908152602001600020600401541461054c576040517f08c379a00000000000000000000000000000000000000000000000000000000081526004016105439061111f565b60405180910390fd5b6040518060a001604052808573ffffffffffffffffffffffffffffffffffffffff16815260200186815260200184848080601f016020809104026020016040519081016040528093929190818152602001838380828437600081840152601f19601f8201169050808301925050505050505081526020018281526020014281525060008087815260200190815260200160002060008201518160000160006101000a81548173ffffffffffffffffffffffffffffffffffffffff021916908373ffffffffffffffffffffffffffffffffffffffff160217905550602082015181600101556040820151816002019081610645919061131a565b5060608201518160030155608082015181600401559050508373ffffffffffffffffffffffffffffffffffffffff16857fb75bbf4946f95ebfbac1bac8c9c9c76b3cea3db94039ed2b41f3957ed905787e8585856040516106a893929190611428565b60405180910390a35050505050565b6000806000848152602001908152602001600020600401540361070f576040517f08c379a0000000000000000000000000000000000000000000000000000000008152600401610706906114a6565b60405180910390fd5b3373ffffffffffffffffffffffffffffffffffffffff1660008084815260200190815260200160002060000160009054906101000a900473ffffffffffffffffffffffffffffffffffffffff1673ffffffffffffffffffffffffffffffffffffffff16146107b2576040517f08c379a00000000000000000000000000000000000000000000000000000000081526004016107a990611512565b60405180910390fd5b6040518060c001604052803373ffffffffffffffffffffffffffffffffffffffff1681526020018473ffffffffffffffffffffffffffffffffffffffff168152602001838152602001428152602001828152602001600115158152506001600086815260200190815260200160002060008201518160000160006101000a81548173ffffffffffffffffffffffffffffffffffffffff021916908373ffffffffffffffffffffffffffffffffffffffff16021790555060208201518160010160006101000a81548173ffffffffffffffffffffffffffffffffffffffff021916908373ffffffffffffffffffffffffffffffffffffffff16021790555060408201518160020155606082015181600301556080820151816004015560a08201518160050160006101000a81548160ff0219169083151502179055509050508273ffffffffffffffffffffffffffffffffffffffff163373ffffffffffffffffffffffffffffffffffffffff16857f26df749d620c08f56f45349ae72b466a09395e904ab12cf462ac06f24732997e8585604051610950929190611532565b60405180910390a450505050565b60008060008060008060006001600089815260200190815260200160002090508060000160009054906101000a900473ffffffffffffffffffffffffffffffffffffffff168160010160009054906101000a900473ffffffffffffffffffffffffffffffffffffffff168260020154836003015484600401548560050160009054906101000a900460ff169650965096509650965096505091939550919395565b60008060008084815260200190815260200160002090508373ffffffffffffffffffffffffffffffffffffffff168160000160009054906101000a900473ffffffffffffffffffffffffffffffffffffffff1673ffffffffffffffffffffffffffffffffffffffff1603610a77576001915050610a7d565b60009150505b92915050565b60016020528060005260406000206000915090508060000160009054906101000a900473ffffffffffffffffffffffffffffffffffffffff16908060010160009054906101000a900473ffffffffffffffffffffffffffffffffffffffff16908060020154908060030154908060040154908060050160009054906101000a900460ff16905086565b600080fd5b600080fd5b6000819050919050565b610b2981610b16565b8114610b3457600080fd5b50565b600081359050610b4681610b20565b92915050565b600060208284031215610b6257610b61610b0c565b5b6000610b7084828501610b37565b91505092915050565b600073ffffffffffffffffffffffffffffffffffffffff82169050919050565b6000610ba482610b79565b9050919050565b610bb481610b99565b82525050565b610bc381610b16565b82525050565b600081519050919050565b600082825260208201905092915050565b60005b83811015610c03578082015181840152602081019050610be8565b60008484015250505050565b6000601f19601f8301169050919050565b6000610c2b82610bc9565b610c358185610bd4565b9350610c45818560208601610be5565b610c4e81610c0f565b840191505092915050565b6000819050919050565b610c6c81610c59565b82525050565b600060a082019050610c876000830188610bab565b610c946020830187610bba565b8181036040830152610ca68186610c20565b9050610cb56060830185610bba565b610cc26080830184610c63565b9695505050505050565b6000608082019050610ce16000830187610bab565b8181036020830152610cf38186610c20565b9050610d026040830185610bba565b610d0f6060830184610c63565b95945050505050565b610d2181610b99565b8114610d2c57600080fd5b50565b600081359050610d3e81610d18565b92915050565b600080fd5b600080fd5b600080fd5b60008083601f840112610d6957610d68610d44565b5b8235905067ffffffffffffffff811115610d8657610d85610d49565b5b602083019150836001820283011115610da257610da1610d4e565b5b9250929050565b600080600080600060808688031215610dc557610dc4610b0c565b5b6000610dd388828901610b37565b9550506020610de488828901610d2f565b945050604086013567ffffffffffffffff811115610e0557610e04610b11565b5b610e1188828901610d53565b93509350506060610e2488828901610b37565b9150509295509295909350565b610e3a81610c59565b8114610e4557600080fd5b50565b600081359050610e5781610e31565b92915050565b60008060008060808587031215610e7757610e76610b0c565b5b6000610e8587828801610b37565b9450506020610e9687828801610d2f565b9350506040610ea787828801610b37565b9250506060610eb887828801610e48565b91505092959194509250565b60008115159050919050565b610ed981610ec4565b82525050565b600060c082019050610ef46000830189610bab565b610f016020830188610bab565b610f0e6040830187610bba565b610f1b6060830186610c63565b610f286080830185610c63565b610f3560a0830184610ed0565b979650505050505050565b60008060408385031215610f5757610f56610b0c565b5b6000610f6585828601610d2f565b9250506020610f7685828601610b37565b9150509250929050565b6000602082019050610f956000830184610ed0565b92915050565b7f4e487b7100000000000000000000000000000000000000000000000000000000600052602260045260246000fd5b60006002820490506001821680610fe257607f821691505b602082108103610ff557610ff4610f9b565b5b50919050565b7f4f6e6c792070617469656e740000000000000000000000000000000000000000600082015250565b6000611031600c83610bd4565b915061103c82610ffb565b602082019050919050565b6000602082019050818103600083015261106081611024565b9050919050565b7f416c726561647920696e61637469766500000000000000000000000000000000600082015250565b600061109d601083610bd4565b91506110a882611067565b602082019050919050565b600060208201905081810360008301526110cc81611090565b9050919050565b7f5265636f72642065786973747300000000000000000000000000000000000000600082015250565b6000611109600d83610bd4565b9150611114826110d3565b602082019050919050565b60006020820190508181036000830152611138816110fc565b9050919050565b7f4e487b7100000000000000000000000000000000000000000000000000000000600052604160045260246000fd5b60008190508160005260206000209050919050565b60006020601f8301049050919050565b600082821b905092915050565b6000600883026111d07fffffffffffffffffffffffffffffffffffffffffffffffffffffffffffffffff82611193565b6111da8683611193565b95508019841693508086168417925050509392505050565b6000819050919050565b600061121761121261120d84610c59565b6111f2565b610c59565b9050919050565b6000819050919050565b611231836111fc565b61124561123d8261121e565b8484546111a0565b825550505050565b600090565b61125a61124d565b611265818484611228565b505050565b5b818110156112895761127e600082611252565b60018101905061126b565b5050565b601f8211156112ce5761129f8161116e565b6112a884611183565b810160208510156112b7578190505b6112cb6112c385611183565b83018261126a565b50505b505050565b600082821c905092915050565b60006112f1600019846008026112d3565b1980831691505092915050565b600061130a83836112e0565b9150826002028217905092915050565b61132382610bc9565b67ffffffffffffffff81111561133c5761133b61113f565b5b6113468254610fca565b61135182828561128d565b600060209050601f8311600181146113845760008415611372578287015190505b61137c85826112fe565b8655506113e4565b601f1984166113928661116e565b60005b828110156113ba57848901518255600182019150602085019450602081019050611395565b868310156113d757848901516113d3601f8916826112e0565b8355505b6001600288020188555050505b505050505050565b82818337600083830152505050565b60006114078385610bd4565b93506114148385846113ec565b61141d83610c0f565b840190509392505050565b600060408201905081810360008301526114438185876113fb565b90506114526020830184610bba565b949350505050565b7f5265636f7264206e6f7420666f756e6400000000000000000000000000000000600082015250565b6000611490601083610bd4565b915061149b8261145a565b602082019050919050565b600060208201905081810360008301526114bf81611483565b9050919050565b7f4f6e6c79206f776e65722063616e206772616e74000000000000000000000000600082015250565b60006114fc601483610bd4565b9150611507826114c6565b602082019050919050565b6000602082019050818103600083015261152b816114ef565b9050919050565b60006040820190506115476000830185610bba565b6115546020830184610c63565b939250505056fea2646970667358221220c24a85cb315439f2d77867efd3a3485bdf4b45fd3d58c49996c2a8e0075cfc2f64736f6c63430008110033",
  "linkReferences": {},
  "deployedLinkReferences": {}
}